{"abi":[{"type":"constructor","inputs":[{"name":"escrowOwner","type":"address","internalType":"address"}],"stateMutability":"nonpayable"},{"type":"function","name":"agreements","inputs":[{"name":"","type":"uint256","internalType":"uint256"}],"outputs":[{"name":"payer","type":"address","internalType":"address payable"},{"name":"payee","type":"address","internalType":"address payable"},{"name":"arbiter","type":"address","internalType":"address"},{"name":"amount","type":"uint256","internalType":"uint256"},{"name":"deadline","type":"uint256","internalType":"uint256"},{"name":"currentState","type":"uint8","internalType":"enum Escrow.State"},{"name":"payerConfirmed","type":"bool","internalType":"bool"},{"name":"payeeConfirmed","type":"bool","internalType":"bool"}],"stateMutability":"view"},{"type":"function","name":"cancelExpiredAgreement","inputs":[{"name":"_agreementId","type":"uint256","internalType":"uint256"}],"outputs":[],"stateMutability":"nonpayable"},{"type":"function","name":"createAgreement","inputs":[{"name":"_payee","type":"address","internalType":"address"},{"name":"_arbiter","type":"address","internalType":"address"},{"name":"_deadline","type":"uint256","internalType":"uint256"}],"outputs":[],"stateMutability":"payable"},{"type":"function","name":"extendDeadline","inputs":[{"name":"_agreementId","type":"uint256","internalType":"uint256"},{"name":"_newDeadline","type":"uint256","internalType":"uint256"}],"outputs":[],"stateMutability":"nonpayable"},{"type":"function","name":"getAgreements","inputs":[{"name":"_agreementId","type":"uint256","internalType":"uint256"}],"outputs":[{"name":"","type":"tuple","internalType":"struct Escrow.Agreement","components":[{"name":"payer","type":"address","internalType":"address payable"},{"name":"payee","type":"address","internalType":"address payable"},{"name":"arbiter","type":"address","internalType":"address"},{"name":"amount","type":"uint256","internalType":"uint256"},{"name":"deadline","type":"uint256","internalType":"uint256"},{"name":"currentState","type":"uint8","internalType":"enum Escrow.State"},{"name":"payerConfirmed","type":"bool","internalType":"bool"},{"name":"payeeConfirmed","type":"bool","internalType":"bool"}]}],"stateMutability":"view"},{"type":"function","name":"getEscrowBalance","inputs":[],"outputs":[{"name":"","type":"uint256","internalType":"uint256"}],"stateMutability":"view"},{"type":"function","name":"inpasue","inputs":[],"outputs":[],"stateMutability":"nonpayable"},{"type":"function","name":"nextAgreementId","inputs":[],"outputs":[{"name":"","type":"uint256","internalType":"uint256"}],"stateMutability":"view"},{"type":"function","name":"owner","inputs":[],"outputs":[{"name":"","type":"address","internalType":"address"}],"stateMutability":"view"},{"type":"function","name":"pause","inputs":[],"outputs":[],"stateMutability":"nonpayable"},{"type":"function","name":"paused","inputs":[],"outputs":[{"name":"","type":"bool","internalType":"bool"}],"stateMutability":"view"},{"type":"function","name":"payeeRequestCompletion","inputs":[{"name":"_agreementId","type":"uint256","internalType":"uint256"}],"outputs":[],"stateMutability":"nonpayable"},{"type":"function","name":"payerRequestCompletion","inputs":[{"name":"_agreementId","type":"uint256","internalType":"uint256"}],"outputs":[],"stateMutability":"nonpayable"},{"type":"function","name":"raiseDispute","inputs":[{"name":"_agreementId","type":"uint256","internalType":"uint256"}],"outputs":[],"stateMutability":"nonpayable"},{"type":"function","name":"releaseFunds","inputs":[{"name":"_agreementId","type":"uint256","internalType":"uint256"}],"outputs":[],"stateMutability":"nonpayable"},{"type":"function","name":"renounceOwnership","inputs":[],"outputs":[],"stateMutability":"nonpayable"},{"type":"function","name":"resolveDispute","inputs":[{"name":"_agreementId","type":"uint256","internalType":"uint256"},{"name":"winner","type":"address","internalType":"address"}],"outputs":[],"stateMutability":"nonpayable"},{"type":"function","name":"transferOwnership","inputs":[{"name":"newOwner","type":"address","internalType":"address"}],"outputs":[],"stateMutability":"nonpayable"},{"type":"event","name":"AgreementCanceled","inputs":[{"name":"agreementId","type":"uint256","indexed":true,"internalType":"uint256"},{"name":"by","type":"address","indexed":false,"internalType":"address"}],"anonymous":false},{"type":"event","name":"ArbiterReleasesFunds","inputs":[{"name":"agreementId","type":"uint256","indexed":true,"internalType":"uint256"},{"name":"amount","type":"uint256","indexed":false,"internalType":"uint256"}],"anonymous":false},{"type":"event","name":"DisputeRaised","inputs":[{"name":"agreementId","type":"uint256","indexed":true,"internalType":"uint256"},{"name":"raiser","type":"address","indexed":false,"internalType":"address"}],"anonymous":false},{"type":"event","name":"ExtendAgreementDeadline","inputs":[{"name":"agreementId","type":"uint256","indexed":true,"internalType":"uint256"},{"name":"newDeadline","type":"uint256","indexed":false,"internalType":"uint256"}],"anonymous":false},{"type":"event","name":"NewAgreement","inputs":[{"name":"agreementId","type":"uint256","indexed":true,"internalType":"uint256"},{"name":"payerAddress","type":"address","indexed":false,"internalType":"address"},{"name":"amount","type":"uint256","indexed":false,"internalType":"uint256"}],"anonymous":false},{"type":"event","name":"OwnershipTransferred","inputs":[{"name":"previousOwner","type":"address","indexed":true,"internalType":"address"},{"name":"newOwner","type":"address","indexed":true,"internalType":"address"}],"anonymous":false},{"type":"event","name":"Paused","inputs":[{"name":"account","type":"address","indexed":false,"internalType":"address"}],"anonymous":false},{"type":"event","name":"PayeeConfirmedTheAgreement","inputs":[{"name":"agreementId","type":"uint256","indexed":true,"internalType":"uint256"},{"name":"payeeAddress","type":"address","indexed":false,"internalType":"address"}],"anonymous":false},{"type":"event","name":"PayeeReleasesFunds","inputs":[{"name":"agreementId","type":"uint256","indexed":true,"internalType":"uint256"},{"name":"amount","type":"uint256","indexed":false,"internalType":"uint256"}],"anonymous":false},{"type":"event","name":"PayerConfirmedTheAgreement","inputs":[{"name":"agreementId","type":"uint256","indexed":true,"internalType":"uint256"},{"name":"payerAddress","type":"address","indexed":false,"internalType":"address"}],"anonymous":false},{"type":"event","name":"Unpaused","inputs":[{"name":"account","type":"address","indexed":false,"internalType":"address"}],"anonymous":false},{"type":"error","name":"AlreadyConfirmed","inputs":[{"name":"from","type":"address","internalType":"address"},{"name":"message","type":"string","internalType":"string"}]},{"type":"error","name":"CancelTooEarly","inputs":[{"name":"message","type":"string","internalType":"string"}]},{"type":"error","name":"DisputeTooEarly","inputs":[{"name":"message","type":"string","internalType":"string"}]},{"type":"error","name":"EnforcedPause","inputs":[]},{"type":"error","name":"ExpectedPause","inputs":[]},{"type":"error","name":"ExtensionNotAllowed","inputs":[{"name":"message","type":"string","internalType":"string"}]},{"type":"error","name":"InvalidAmount","inputs":[{"name":"amount","type":"uint256","internalType":"uint256"},{"name":"message","type":"string","internalType":"string"}]},{"type":"error","name":"InvalidArbiterAddress","inputs":[{"name":"arbiter","type":"address","internalType":"address"},{"name":"message","type":"string","internalType":"string"}]},{"type":"error","name":"InvalidDeadline","inputs":[{"name":"time","type":"uint256","internalType":"uint256"},{"name":"message","type":"string","internalType":"string"}]},{"type":"error","name":"InvalidPayeeAddress","inputs":[{"name":"payee","type":"address","internalType":"address"},{"name":"message","type":"string","internalType":"string"}]},{"type":"error","name":"InvalidPayerAddress","inputs":[{"name":"payer","type":"address","internalType":"address"},{"name":"message","type":"string","internalType":"string"}]},{"type":"error","name":"InvalidStateForCancel","inputs":[{"name":"message","type":"string","internalType":"string"}]},{"type":"error","name":"InvalidStateForDispute","inputs":[{"name":"message","type":"string","internalType":"string"}]},{"type":"error","name":"InvalidStateForExtension","inputs":[{"name":"message","type":"string","internalType":"string"}]},{"type":"error","name":"InvalidStateForResolve","inputs":[{"name":"message","type":"string","internalType":"string"}]},{"type":"error","name":"InvalidTimeForPayerToConfirm","inputs":[{"name":"payer","type":"address","internalType":"address"},{"name":"message","type":"string","internalType":"string"}]},{"type":"error","name":"InvalidWinnerAddress","inputs":[{"name":"winner","type":"address","internalType":"address"},{"name":"message","type":"string","internalType":"string"}]},{"type":"error","name":"NotParticipant","inputs":[{"name":"message","type":"string","internalType":"string"}]},{"type":"error","name":"OwnableInvalidOwner","inputs":[{"name":"owner","type":"address","internalType":"address"}]},{"type":"error","name":"OwnableUnauthorizedAccount","inputs":[{"name":"account","type":"address","internalType":"address"}]},{"type":"error","name":"ReentrancyGuardReentrantCall","inputs":[]},{"type":"error","name":"ReleaseNotAllowed","inputs":[{"name":"message","type":"string","internalType":"string"}]}],"bytecode":{"object":"0x60806040525f600255348015610013575f80fd5b50604051613500380380613500833981810160405281019061003591906101e4565b8060015f819055505f73ffffffffffffffffffffffffffffffffffffffff168173ffffffffffffffffffffffffffffffffffffffff16036100ad575f6040517f1e4fbdf70000000000000000000000000000000000000000000000000000000081526004016100a4919061021e565b60405180910390fd5b6100bc816100c360201b60201c565b5050610237565b5f60015f9054906101000a900473ffffffffffffffffffffffffffffffffffffffff1690508160015f6101000a81548173ffffffffffffffffffffffffffffffffffffffff021916908373ffffffffffffffffffffffffffffffffffffffff1602179055508173ffffffffffffffffffffffffffffffffffffffff168173ffffffffffffffffffffffffffffffffffffffff167f8be0079c531659141344cd1fd0a4f28419497f9722a3daafe3b4186f6b6457e060405160405180910390a35050565b5f80fd5b5f73ffffffffffffffffffffffffffffffffffffffff82169050919050565b5f6101b38261018a565b9050919050565b6101c3816101a9565b81146101cd575f80fd5b50565b5f815190506101de816101ba565b92915050565b5f602082840312156101f9576101f8610186565b5b5f610206848285016101d0565b91505092915050565b610218816101a9565b82525050565b5f6020820190506102315f83018461020f565b92915050565b6132bc806102445f395ff3fe608060405260043610610108575f3560e01c8063a5c1674e11610094578063c9b99dab11610063578063c9b99dab14610305578063d2045d761461032f578063d451434214610357578063e1f1012514610393578063f2fde38b146103a957610108565b8063a5c1674e14610248578063a625d46a14610270578063bd14de9614610298578063c56e610e146102db57610108565b8063715018a6116100db578063715018a6146101ae5780638456cb59146101c45780638da5cb5b146101da57806391b5e5711461020457806392ca31511461022057610108565b80630e33599d1461010c5780632d1fdef6146101345780634d68282f1461015c5780635c975abb14610184575b5f80fd5b348015610117575f80fd5b50610132600480360381019061012d9190611e56565b6103d1565b005b34801561013f575f80fd5b5061015a60048036038101906101559190611e94565b6106a2565b005b348015610167575f80fd5b50610182600480360381019061017d9190611ed2565b6108a9565b005b34801561018f575f80fd5b50610198610b1b565b6040516101a59190611f17565b60405180910390f35b3480156101b9575f80fd5b506101c2610b31565b005b3480156101cf575f80fd5b506101d8610b44565b005b3480156101e5575f80fd5b506101ee610b56565b6040516101fb9190611f3f565b60405180910390f35b61021e60048036038101906102199190611f58565b610b7e565b005b34801561022b575f80fd5b5061024660048036038101906102419190611ed2565b610ed2565b005b348015610253575f80fd5b5061026e60048036038101906102699190611ed2565b611078565b005b34801561027b575f80fd5b5061029660048036038101906102919190611ed2565b611378565b005b3480156102a3575f80fd5b506102be60048036038101906102b99190611ed2565b611515565b6040516102d298979695949392919061204a565b60405180910390f35b3480156102e6575f80fd5b506102ef6115dc565b6040516102fc91906120c6565b60405180910390f35b348015610310575f80fd5b506103196115e3565b60405161032691906120c6565b60405180910390f35b34801561033a575f80fd5b5061035560048036038101906103509190611ed2565b6115e9565b005b348015610362575f80fd5b5061037d60048036038101906103789190611ed2565b611809565b60405161038a91906121ca565b60405180910390f35b34801561039e575f80fd5b506103a76119b7565b005b3480156103b4575f80fd5b506103cf60048036038101906103ca91906121e4565b6119c9565b005b6103d9611a4d565b5f60035f8481526020019081526020015f209050806002015f9054906101000a900473ffffffffffffffffffffffffffffffffffffffff1673ffffffffffffffffffffffffffffffffffffffff163373ffffffffffffffffffffffffffffffffffffffff161461048057336040517f25f6b5ee000000000000000000000000000000000000000000000000000000008152600401610477919061228f565b60405180910390fd5b60038081111561049357610492611fd7565b5b816005015f9054906101000a900460ff1660038111156104b6576104b5611fd7565b5b146104f6576040517ff57ec7010000000000000000000000000000000000000000000000000000000081526004016104ed90612351565b60405180910390fd5b805f015f9054906101000a900473ffffffffffffffffffffffffffffffffffffffff1673ffffffffffffffffffffffffffffffffffffffff168273ffffffffffffffffffffffffffffffffffffffff16141580156105a35750806001015f9054906101000a900473ffffffffffffffffffffffffffffffffffffffff1673ffffffffffffffffffffffffffffffffffffffff168273ffffffffffffffffffffffffffffffffffffffff1614155b156105e557816040517fc955d0400000000000000000000000000000000000000000000000000000000081526004016105dc91906123df565b60405180910390fd5b6001816005015f6101000a81548160ff0219169083600381111561060c5761060b611fd7565b5b0217905550827fe153fbe35ce72adbcde14e4091c02eaaabf23168ed6b4e90c9b4a6e7298ddd3f826003015460405161064591906120c6565b60405180910390a28173ffffffffffffffffffffffffffffffffffffffff166108fc826003015490811502906040515f60405180830381858888f19350505050158015610694573d5f803e3d5ffd5b505061069e611a91565b5050565b5f60035f8481526020019081526020015f20905080600401548210806106c757504282105b1561070957816040517f0a51399100000000000000000000000000000000000000000000000000000000815260040161070091906124a1565b60405180910390fd5b805f015f9054906101000a900473ffffffffffffffffffffffffffffffffffffffff1673ffffffffffffffffffffffffffffffffffffffff163373ffffffffffffffffffffffffffffffffffffffff161461079b57336040517f209c99c6000000000000000000000000000000000000000000000000000000008152600401610792919061253d565b60405180910390fd5b8060050160029054906101000a900460ff16156107ed576040517fc195f09f0000000000000000000000000000000000000000000000000000000081526004016107e4906125d9565b60405180910390fd5b5f6003811115610800576107ff611fd7565b5b816005015f9054906101000a900460ff16600381111561082357610822611fd7565b5b14610863576040517f08e482b100000000000000000000000000000000000000000000000000000000815260040161085a90612667565b60405180910390fd5b818160040181905550827f8c8265e74a1a28c12063b079fdbde2505eb2a71525e6656728fd8d0ebefed30a8360405161089c91906120c6565b60405180910390a2505050565b6108b1611a4d565b5f60035f8381526020019081526020015f2090503373ffffffffffffffffffffffffffffffffffffffff16816001015f9054906101000a900473ffffffffffffffffffffffffffffffffffffffff1673ffffffffffffffffffffffffffffffffffffffff161461095857336040517f73b458e900000000000000000000000000000000000000000000000000000000815260040161094f91906126f5565b60405180910390fd5b8060050160019054906101000a900460ff16158061098557508060050160029054906101000a900460ff16155b156109c5576040517f1c1870280000000000000000000000000000000000000000000000000000000081526004016109bc9061276b565b60405180910390fd5b600160038111156109d9576109d8611fd7565b5b816005015f9054906101000a900460ff1660038111156109fc576109fb611fd7565b5b03610a3c576040517f1c187028000000000000000000000000000000000000000000000000000000008152600401610a33906127f9565b60405180910390fd5b6001816005015f6101000a81548160ff02191690836003811115610a6357610a62611fd7565b5b0217905550817f5adec748d1ad515d5bab35ce29200fd24964a53a48bbdcfd27e67f81a002fef78260030154604051610a9c91906120c6565b60405180910390a2806001015f9054906101000a900473ffffffffffffffffffffffffffffffffffffffff1673ffffffffffffffffffffffffffffffffffffffff166108fc826003015490811502906040515f60405180830381858888f19350505050158015610b0e573d5f803e3d5ffd5b5050610b18611a91565b50565b5f600160149054906101000a900460ff16905090565b610b39611a9a565b610b425f611b21565b565b610b4c611a9a565b610b54611be4565b565b5f60015f9054906101000a900473ffffffffffffffffffffffffffffffffffffffff16905090565b42811015610bc357806040517f0a513991000000000000000000000000000000000000000000000000000000008152600401610bba9190612887565b60405180910390fd5b5f3403610c0757346040517f3264f902000000000000000000000000000000000000000000000000000000008152600401610bfe91906128fd565b60405180910390fd5b5f73ffffffffffffffffffffffffffffffffffffffff168373ffffffffffffffffffffffffffffffffffffffff1603610c7757826040517f73b458e9000000000000000000000000000000000000000000000000000000008152600401610c6e9190612973565b60405180910390fd5b5f60025490505f6040518061010001604052803373ffffffffffffffffffffffffffffffffffffffff1681526020018673ffffffffffffffffffffffffffffffffffffffff1681526020018573ffffffffffffffffffffffffffffffffffffffff1681526020013481526020018481526020015f6003811115610cfd57610cfc611fd7565b5b81526020015f151581526020015f151581525090508060035f8481526020019081526020015f205f820151815f015f6101000a81548173ffffffffffffffffffffffffffffffffffffffff021916908373ffffffffffffffffffffffffffffffffffffffff1602179055506020820151816001015f6101000a81548173ffffffffffffffffffffffffffffffffffffffff021916908373ffffffffffffffffffffffffffffffffffffffff1602179055506040820151816002015f6101000a81548173ffffffffffffffffffffffffffffffffffffffff021916908373ffffffffffffffffffffffffffffffffffffffff160217905550606082015181600301556080820151816004015560a0820151816005015f6101000a81548160ff02191690836003811115610e3257610e31611fd7565b5b021790555060c08201518160050160016101000a81548160ff02191690831515021790555060e08201518160050160026101000a81548160ff02191690831515021790555090505060025f815480929190610e8c906129cc565b9190505550817f96bf8f8479608ad5393a2af5592e0c8bcca08468160baf8cd195e2042bae891a3334604051610ec3929190612a13565b60405180910390a25050505050565b5f60035f8381526020019081526020015f2090508060050160019054906101000a900460ff1615610f3a57336040517f6d768f88000000000000000000000000000000000000000000000000000000008152600401610f319190612aaa565b60405180910390fd5b3373ffffffffffffffffffffffffffffffffffffffff16815f015f9054906101000a900473ffffffffffffffffffffffffffffffffffffffff1673ffffffffffffffffffffffffffffffffffffffff1614610fcc57336040517f209c99c6000000000000000000000000000000000000000000000000000000008152600401610fc39190612b46565b60405180910390fd5b8060050160029054906101000a900460ff1661101f57336040517f311b26ca0000000000000000000000000000000000000000000000000000000081526004016110169190612be2565b60405180910390fd5b60018160050160016101000a81548160ff021916908315150217905550817f73ae6fd3255d119e03b6fa4035b990816fd198e2b1ec039e150409e9643550203360405161106c9190611f3f565b60405180910390a25050565b5f60035f8381526020019081526020015f209050806001015f9054906101000a900473ffffffffffffffffffffffffffffffffffffffff1673ffffffffffffffffffffffffffffffffffffffff163373ffffffffffffffffffffffffffffffffffffffff16141580156111395750805f015f9054906101000a900473ffffffffffffffffffffffffffffffffffffffff1673ffffffffffffffffffffffffffffffffffffffff163373ffffffffffffffffffffffffffffffffffffffff1614155b15611179576040517f1cda161d00000000000000000000000000000000000000000000000000000000815260040161117090612c7e565b60405180910390fd5b42816004015411156111c0576040517fbcae04230000000000000000000000000000000000000000000000000000000081526004016111b790612d0c565b60405180910390fd5b8060050160029054906101000a900460ff1680156111ec57508060050160019054906101000a900460ff165b1561122c576040517fd6a2528600000000000000000000000000000000000000000000000000000000815260040161122390612d9a565b60405180910390fd5b8060050160029054906101000a900460ff1615801561125a57508060050160019054906101000a900460ff16155b1561129a576040517fd6a2528600000000000000000000000000000000000000000000000000000000815260040161129190612e4e565b60405180910390fd5b5f60038111156112ad576112ac611fd7565b5b816005015f9054906101000a900460ff1660038111156112d0576112cf611fd7565b5b14611310576040517fd6a2528600000000000000000000000000000000000000000000000000000000815260040161130790612edc565b60405180910390fd5b6003816005015f6101000a81548160ff0219169083600381111561133757611336611fd7565b5b0217905550817f84a477df8a28a4276ca6dee4458a06c3015f30c477d9c949ede4e13ff8a552b43360405161136c9190611f3f565b60405180910390a25050565b5f60035f8381526020019081526020015f2090508060050160029054906101000a900460ff16156113e057336040517f6d768f880000000000000000000000000000000000000000000000000000000081526004016113d79190612f6a565b60405180910390fd5b3373ffffffffffffffffffffffffffffffffffffffff16816001015f9054906101000a900473ffffffffffffffffffffffffffffffffffffffff1673ffffffffffffffffffffffffffffffffffffffff161461147357336040517f73b458e900000000000000000000000000000000000000000000000000000000815260040161146a9190613006565b60405180910390fd5b80600401544211156114bc57426040517f0a5139910000000000000000000000000000000000000000000000000000000081526004016114b391906130a2565b60405180910390fd5b60018160050160026101000a81548160ff021916908315150217905550817f74a497149b38cb75f6edf1d890c8b264e46a9003388dc333ee439938d5d3e578336040516115099190611f3f565b60405180910390a25050565b6003602052805f5260405f205f91509050805f015f9054906101000a900473ffffffffffffffffffffffffffffffffffffffff1690806001015f9054906101000a900473ffffffffffffffffffffffffffffffffffffffff1690806002015f9054906101000a900473ffffffffffffffffffffffffffffffffffffffff1690806003015490806004015490806005015f9054906101000a900460ff16908060050160019054906101000a900460ff16908060050160029054906101000a900460ff16905088565b5f47905090565b60025481565b6115f1611a4d565b5f60035f8381526020019081526020015f2090505f600381111561161857611617611fd7565b5b816005015f9054906101000a900460ff16600381111561163b5761163a611fd7565b5b1461167b576040517f568070a10000000000000000000000000000000000000000000000000000000081526004016116729061313e565b60405180910390fd5b42816004015411156116c2576040517f31e5c0810000000000000000000000000000000000000000000000000000000081526004016116b9906131cc565b60405180910390fd5b8060050160029054906101000a900460ff16806116ed57508060050160019054906101000a900460ff165b1561172f575f6040517f6d768f88000000000000000000000000000000000000000000000000000000008152600401611726919061325a565b60405180910390fd5b6002816005015f6101000a81548160ff0219169083600381111561175657611755611fd7565b5b0217905550817f3cc7b7022bfc5e04de32ff503510fd950ccafd0f45b4984092719f932442f22f3360405161178b9190611f3f565b60405180910390a2805f015f9054906101000a900473ffffffffffffffffffffffffffffffffffffffff1673ffffffffffffffffffffffffffffffffffffffff166108fc826003015490811502906040515f60405180830381858888f193505050501580156117fc573d5f803e3d5ffd5b5050611806611a91565b50565b611811611d30565b60035f8381526020019081526020015f20604051806101000160405290815f82015f9054906101000a900473ffffffffffffffffffffffffffffffffffffffff1673ffffffffffffffffffffffffffffffffffffffff1673ffffffffffffffffffffffffffffffffffffffff168152602001600182015f9054906101000a900473ffffffffffffffffffffffffffffffffffffffff1673ffffffffffffffffffffffffffffffffffffffff1673ffffffffffffffffffffffffffffffffffffffff168152602001600282015f9054906101000a900473ffffffffffffffffffffffffffffffffffffffff1673ffffffffffffffffffffffffffffffffffffffff1673ffffffffffffffffffffffffffffffffffffffff1681526020016003820154815260200160048201548152602001600582015f9054906101000a900460ff16600381111561196457611963611fd7565b5b600381111561197657611975611fd7565b5b81526020016005820160019054906101000a900460ff161515151581526020016005820160029054906101000a900460ff1615151515815250509050919050565b6119bf611a9a565b6119c7611c46565b565b6119d1611a9a565b5f73ffffffffffffffffffffffffffffffffffffffff168173ffffffffffffffffffffffffffffffffffffffff1603611a41575f6040517f1e4fbdf7000000000000000000000000000000000000000000000000000000008152600401611a389190611f3f565b60405180910390fd5b611a4a81611b21565b50565b60025f5403611a88576040517f3ee5aeb500000000000000000000000000000000000000000000000000000000815260040160405180910390fd5b60025f81905550565b60015f81905550565b611aa2611ca8565b73ffffffffffffffffffffffffffffffffffffffff16611ac0610b56565b73ffffffffffffffffffffffffffffffffffffffff1614611b1f57611ae3611ca8565b6040517f118cdaa7000000000000000000000000000000000000000000000000000000008152600401611b169190611f3f565b60405180910390fd5b565b5f60015f9054906101000a900473ffffffffffffffffffffffffffffffffffffffff1690508160015f6101000a81548173ffffffffffffffffffffffffffffffffffffffff021916908373ffffffffffffffffffffffffffffffffffffffff1602179055508173ffffffffffffffffffffffffffffffffffffffff168173ffffffffffffffffffffffffffffffffffffffff167f8be0079c531659141344cd1fd0a4f28419497f9722a3daafe3b4186f6b6457e060405160405180910390a35050565b611bec611caf565b60018060146101000a81548160ff0219169083151502179055507f62e78cea01bee320cd4e420270b5ea74000d11b0c9f74754ebdbfc544b05a258611c2f611ca8565b604051611c3c9190611f3f565b60405180910390a1565b611c4e611cf0565b5f600160146101000a81548160ff0219169083151502179055507f5db9ee0a495bf2e6ff9c91a7834c1ba4fdd244a5e8aa4e537bd38aeae4b073aa611c91611ca8565b604051611c9e9190611f3f565b60405180910390a1565b5f33905090565b611cb7610b1b565b15611cee576040517fd93c066500000000000000000000000000000000000000000000000000000000815260040160405180910390fd5b565b611cf8610b1b565b611d2e576040517f8dfc202b00000000000000000000000000000000000000000000000000000000815260040160405180910390fd5b565b6040518061010001604052805f73ffffffffffffffffffffffffffffffffffffffff1681526020015f73ffffffffffffffffffffffffffffffffffffffff1681526020015f73ffffffffffffffffffffffffffffffffffffffff1681526020015f81526020015f81526020015f6003811115611daf57611dae611fd7565b5b81526020015f151581526020015f151581525090565b5f80fd5b5f819050919050565b611ddb81611dc9565b8114611de5575f80fd5b50565b5f81359050611df681611dd2565b92915050565b5f73ffffffffffffffffffffffffffffffffffffffff82169050919050565b5f611e2582611dfc565b9050919050565b611e3581611e1b565b8114611e3f575f80fd5b50565b5f81359050611e5081611e2c565b92915050565b5f8060408385031215611e6c57611e6b611dc5565b5b5f611e7985828601611de8565b9250506020611e8a85828601611e42565b9150509250929050565b5f8060408385031215611eaa57611ea9611dc5565b5b5f611eb785828601611de8565b9250506020611ec885828601611de8565b9150509250929050565b5f60208284031215611ee757611ee6611dc5565b5b5f611ef484828501611de8565b91505092915050565b5f8115159050919050565b611f1181611efd565b82525050565b5f602082019050611f2a5f830184611f08565b92915050565b611f3981611e1b565b82525050565b5f602082019050611f525f830184611f30565b92915050565b5f805f60608486031215611f6f57611f6e611dc5565b5b5f611f7c86828701611e42565b9350506020611f8d86828701611e42565b9250506040611f9e86828701611de8565b9150509250925092565b5f611fb282611dfc565b9050919050565b611fc281611fa8565b82525050565b611fd181611dc9565b82525050565b7f4e487b71000000000000000000000000000000000000000000000000000000005f52602160045260245ffd5b6004811061201557612014611fd7565b5b50565b5f81905061202582612004565b919050565b5f61203482612018565b9050919050565b6120448161202a565b82525050565b5f6101008201905061205e5f83018b611fb9565b61206b602083018a611fb9565b6120786040830189611f30565b6120856060830188611fc8565b6120926080830187611fc8565b61209f60a083018661203b565b6120ac60c0830185611f08565b6120b960e0830184611f08565b9998505050505050505050565b5f6020820190506120d95f830184611fc8565b92915050565b6120e881611fa8565b82525050565b6120f781611e1b565b82525050565b61210681611dc9565b82525050565b6121158161202a565b82525050565b61212481611efd565b82525050565b61010082015f82015161213f5f8501826120df565b50602082015161215260208501826120df565b50604082015161216560408501826120ee565b50606082015161217860608501826120fd565b50608082015161218b60808501826120fd565b5060a082015161219e60a085018261210c565b5060c08201516121b160c085018261211b565b5060e08201516121c460e085018261211b565b50505050565b5f610100820190506121de5f83018461212a565b92915050565b5f602082840312156121f9576121f8611dc5565b5b5f61220684828501611e42565b91505092915050565b5f82825260208201905092915050565b7f6d73672e73656e646572206973206e6f74207468652061726269746572206f665f8201527f207468652061677265656d656e742e0000000000000000000000000000000000602082015250565b5f612279602f8361220f565b91506122848261221f565b604082019050919050565b5f6040820190506122a25f830184611f30565b81810360208301526122b38161226d565b905092915050565b7f446973707574652063616e206f6e6c79206265207265736f6c766564207768655f8201527f6e2061677265656d656e7420697320696e2027496e446973707574652720737460208201527f6174652e00000000000000000000000000000000000000000000000000000000604082015250565b5f61233b60448361220f565b9150612346826122bb565b606082019050919050565b5f6020820190508181035f8301526123688161232f565b9050919050565b7f57696e6e65722061646472657373206973206e6f74207061796572206f7220705f8201527f61796565206f66207468652061677265656d656e742e00000000000000000000602082015250565b5f6123c960368361220f565b91506123d48261236f565b604082019050919050565b5f6040820190506123f25f830184611f30565b8181036020830152612403816123bd565b905092915050565b7f4e657720646561646c696e65206d7573742062652067726561746572207468615f8201527f6e207468652063757272656e7420646561646c696e6520616e6420612066757460208201527f7572652074696d657374616d702e000000000000000000000000000000000000604082015250565b5f61248b604e8361220f565b91506124968261240b565b606082019050919050565b5f6040820190506124b45f830184611fc8565b81810360208301526124c58161247f565b905092915050565b7f6d73672e73656e646572206973206e6f7420746865207061796572206f6620745f8201527f68652061677265656d656e742e00000000000000000000000000000000000000602082015250565b5f612527602d8361220f565b9150612532826124cd565b604082019050919050565b5f6040820190506125505f830184611f30565b81810360208301526125618161251b565b905092915050565b7f43616e6e6f7420657874656e6420646561646c696e65206166746572207061795f8201527f65652068617320636f6e6669726d65642e000000000000000000000000000000602082015250565b5f6125c360318361220f565b91506125ce82612569565b604082019050919050565b5f6020820190508181035f8301526125f0816125b7565b9050919050565b7f446561646c696e652063616e206f6e6c7920626520657874656e6465642077685f8201527f656e2061677265656d656e7420697320696e2066756e6465642073746174652e602082015250565b5f61265160408361220f565b915061265c826125f7565b604082019050919050565b5f6020820190508181035f83015261267e81612645565b9050919050565b7f4f6e6c79207061796565206f66207468652061677265656d656e7420616e64205f8201527f72656c656173652066756e64732e000000000000000000000000000000000000602082015250565b5f6126df602e8361220f565b91506126ea82612685565b604082019050919050565b5f6040820190506127085f830184611f30565b8181036020830152612719816126d3565b905092915050565b7f426f74682070617274696573206d75737420636f6e6669726d000000000000005f82015250565b5f61275560198361220f565b915061276082612721565b602082019050919050565b5f6020820190508181035f83015261278281612749565b9050919050565b7f41677265656d656e7420697320696e20436f6d706c657465642073746174652c5f8201527f2066756e6473206861766520616c72656164792072656c656173656400000000602082015250565b5f6127e3603c8361220f565b91506127ee82612789565b604082019050919050565b5f6020820190508181035f830152612810816127d7565b9050919050565b7f446561646c696e652073686f756c642062652074696d6520696e2066757475725f8201527f6500000000000000000000000000000000000000000000000000000000000000602082015250565b5f61287160218361220f565b915061287c82612817565b604082019050919050565b5f60408201905061289a5f830184611fc8565b81810360208301526128ab81612865565b905092915050565b7f416d6f756e74206d7573742062652067726561746572207468616e20300000005f82015250565b5f6128e7601d8361220f565b91506128f2826128b3565b602082019050919050565b5f6040820190506129105f830184611fc8565b8181036020830152612921816128db565b905092915050565b7f546865207061796565206164647265737320696e20496e76616c6964000000005f82015250565b5f61295d601c8361220f565b915061296882612929565b602082019050919050565b5f6040820190506129865f830184611f30565b818103602083015261299781612951565b905092915050565b7f4e487b71000000000000000000000000000000000000000000000000000000005f52601160045260245ffd5b5f6129d682611dc9565b91507fffffffffffffffffffffffffffffffffffffffffffffffffffffffffffffffff8203612a0857612a0761299f565b5b600182019050919050565b5f604082019050612a265f830185611f30565b612a336020830184611fc8565b9392505050565b7f50617965722068617320616c726561647920636f6e6669726d656420636f6d705f8201527f6c6574696f6e0000000000000000000000000000000000000000000000000000602082015250565b5f612a9460268361220f565b9150612a9f82612a3a565b604082019050919050565b5f604082019050612abd5f830184611f30565b8181036020830152612ace81612a88565b905092915050565b7f6d73672e73656e646572206973206e6f7420746865207061796572206f6620745f8201527f68652061677265656d656e740000000000000000000000000000000000000000602082015250565b5f612b30602c8361220f565b9150612b3b82612ad6565b604082019050919050565b5f604082019050612b595f830184611f30565b8181036020830152612b6a81612b24565b905092915050565b7f546865205061796565206f66207468652061677265656d656e742073686f756c5f8201527f6420636f6e6669726d2066697273740000000000000000000000000000000000602082015250565b5f612bcc602f8361220f565b9150612bd782612b72565b604082019050919050565b5f604082019050612bf55f830184611f30565b8181036020830152612c0681612bc0565b905092915050565b7f6d73672e73656e646572206973206e6f74207061796572206f722070617965655f8201527f206f66207468652061677265656d656e742e0000000000000000000000000000602082015250565b5f612c6860328361220f565b9150612c7382612c0e565b604082019050919050565b5f6020820190508181035f830152612c9581612c5c565b9050919050565b7f446973707574652063616e206f6e6c79206265207261697365642061667465725f8201527f207468652061677265656d656e7420646561646c696e652e0000000000000000602082015250565b5f612cf660388361220f565b9150612d0182612c9c565b604082019050919050565b5f6020820190508181035f830152612d2381612cea565b9050919050565b7f43616e6e6f7420726169736520612064697370757465207768656e20626f74685f8201527f2070617274696573206861766520636f6e6669726d65642e0000000000000000602082015250565b5f612d8460388361220f565b9150612d8f82612d2a565b604082019050919050565b5f6020820190508181035f830152612db181612d78565b9050919050565b7f44697370757465206e6f7420616c6c6f776564207768656e206e6f20636f6e665f8201527f69726d6174696f6e732068617665206265656e206d6164652e2055736520636160208201527f6e63656c4578706972656441677265656d656e7420696e73746561642e000000604082015250565b5f612e38605d8361220f565b9150612e4382612db8565b606082019050919050565b5f6020820190508181035f830152612e6581612e2c565b9050919050565b7f446973707574652063616e206f6e6c7920626520726169736564207768656e205f8201527f61677265656d656e7420697320696e2046756e6465642073746174652e000000602082015250565b5f612ec6603d8361220f565b9150612ed182612e6c565b604082019050919050565b5f6020820190508181035f830152612ef381612eba565b9050919050565b7f50617965652068617320616c726561647920636f6e6669726d656420636f6d705f8201527f6c6574696f6e0000000000000000000000000000000000000000000000000000602082015250565b5f612f5460268361220f565b9150612f5f82612efa565b604082019050919050565b5f604082019050612f7d5f830184611f30565b8181036020830152612f8e81612f48565b905092915050565b7f6d73672e73656e646572206973206e6f7420746865207061796565206f6620745f8201527f68652061677265656d656e740000000000000000000000000000000000000000602082015250565b5f612ff0602c8361220f565b9150612ffb82612f96565b604082019050919050565b5f6040820190506130195f830184611f30565b818103602083015261302a81612fe4565b905092915050565b7f5468652061677265656d656e7420646561646c696e652068617320616c7265615f8201527f6479206578706972656400000000000000000000000000000000000000000000602082015250565b5f61308c602a8361220f565b915061309782613032565b604082019050919050565b5f6040820190506130b55f830184611fc8565b81810360208301526130c681613080565b905092915050565b7f41677265656d656e742063616e206f6e6c792062652063616e63656c6c6564205f8201527f7768656e20697420697320696e2046756e6465642073746174652e0000000000602082015250565b5f613128603b8361220f565b9150613133826130ce565b604082019050919050565b5f6020820190508181035f8301526131558161311c565b9050919050565b7f41677265656d656e742063616e206f6e6c792062652063616e63656c6c6564205f8201527f7768656e2074686520646561646c696e65207061737365642e00000000000000602082015250565b5f6131b660398361220f565b91506131c18261315c565b604082019050919050565b5f6020820190508181035f8301526131e3816131aa565b9050919050565b7f41677265656d656e742063616e206e6f742062652063616e63656c6c656420775f8201527f68656e2070617274696573206861766520636f6e6669726d65642e0000000000602082015250565b5f613244603b8361220f565b915061324f826131ea565b604082019050919050565b5f60408201905061326d5f830184611f30565b818103602083015261327e81613238565b90509291505056fea2646970667358221220ca8953747e26409d3e89194c2aab13858c1c69d45225b4e9ad490a16439fba6b64736f6c634300081a0033","linkReferences":{}},"methodIdentifiers":{"agreements(uint256)":"bd14de96","cancelExpiredAgreement(uint256)":"d2045d76","createAgreement(address,address,uint256)":"91b5e571","extendDeadline(uint256,uint256)":"2d1fdef6","getAgreements(uint256)":"d4514342","getEscrowBalance()":"c56e610e","inpasue()":"e1f10125","nextAgreementId()":"c9b99dab","owner()":"8da5cb5b","pause()":"8456cb59","paused()":"5c975abb","payeeRequestCompletion(uint256)":"a625d46a","payerRequestCompletion(uint256)":"92ca3151","raiseDispute(uint256)":"a5c1674e","releaseFunds(uint256)":"4d68282f","renounceOwnership()":"715018a6","resolveDispute(uint256,address)":"0e33599d","transferOwnership(address)":"f2fde38b"},"id":25}